{
  "contractName": "Election",
  "abi": [
    {
      "constant": true,
      "inputs": [],
      "name": "auctionEnd",
      "outputs": [
        {
          "name": "",
          "type": "uint256"
        }
      ],
      "payable": false,
      "stateMutability": "view",
      "type": "function"
    },
    {
      "constant": true,
      "inputs": [],
      "name": "candidatesCount",
      "outputs": [
        {
          "name": "",
          "type": "uint256"
        }
      ],
      "payable": false,
      "stateMutability": "view",
      "type": "function"
    },
    {
      "constant": true,
      "inputs": [
        {
          "name": "",
          "type": "uint256"
        }
      ],
      "name": "candidates",
      "outputs": [
        {
          "name": "id",
          "type": "uint256"
        },
        {
          "name": "name",
          "type": "string"
        },
        {
          "name": "voteCount",
          "type": "uint256"
        }
      ],
      "payable": false,
      "stateMutability": "view",
      "type": "function"
    },
    {
      "constant": true,
      "inputs": [
        {
          "name": "",
          "type": "address"
        }
      ],
      "name": "voters",
      "outputs": [
        {
          "name": "",
          "type": "bool"
        }
      ],
      "payable": false,
      "stateMutability": "view",
      "type": "function"
    },
    {
      "inputs": [],
      "payable": false,
      "stateMutability": "nonpayable",
      "type": "constructor"
    },
    {
      "constant": false,
      "inputs": [
        {
          "name": "_candidateId",
          "type": "uint256"
        }
      ],
      "name": "vote",
      "outputs": [],
      "payable": false,
      "stateMutability": "nonpayable",
      "type": "function"
    }
  ],
  "bytecode": "0x608060405234801561001057600080fd5b5061005e6040805190810160405280600b81526020017f63616e64696461746520310000000000000000000000000000000000000000008152506100b0640100000000026401000000009004565b6100ab6040805190810160405280600b81526020017f63616e64696461746520320000000000000000000000000000000000000000008152506100b0640100000000026401000000009004565b6101ea565b60026000815480929190600101919050555060006060604051908101604052806002548152602001838152602001600081525090806001815401808255809150509060018203906000526020600020906003020160009091929091909150600082015181600001556020820151816001019080519060200190610134929190610145565b506040820151816002015550505050565b828054600181600116156101000203166002900490600052602060002090601f016020900481019282601f1061018657805160ff19168380011785556101b4565b828001600101855582156101b4579182015b828111156101b3578251825591602001919060010190610198565b5b5090506101c191906101c5565b5090565b6101e791905b808211156101e35760008160009055506001016101cb565b5090565b90565b61042d806101f96000396000f30060806040526004361061006d576000357c0100000000000000000000000000000000000000000000000000000000900463ffffffff1680630121b93f146100725780632a24f46c1461009f5780632d35a8a2146100ca5780633477ee2e146100f5578063a3ec138d146101a9575b600080fd5b34801561007e57600080fd5b5061009d60048036038101908080359060200190929190505050610204565b005b3480156100ab57600080fd5b506100b4610304565b6040518082815260200191505060405180910390f35b3480156100d657600080fd5b506100df61030a565b6040518082815260200191505060405180910390f35b34801561010157600080fd5b5061012060048036038101908080359060200190929190505050610310565b6040518084815260200180602001838152602001828103825284818151815260200191508051906020019080838360005b8381101561016c578082015181840152602081019050610151565b50505050905090810190601f1680156101995780820380516001836020036101000a031916815260200191505b5094505050505060405180910390f35b3480156101b557600080fd5b506101ea600480360381019080803573ffffffffffffffffffffffffffffffffffffffff1690602001909291905050506103e1565b604051808215151515815260200191505060405180910390f35b600160003373ffffffffffffffffffffffffffffffffffffffff1673ffffffffffffffffffffffffffffffffffffffff16815260200190815260200160002060009054906101000a900460ff1615151561025d57600080fd5b60008111801561026f57506002548111155b151561027a57600080fd5b60018060003373ffffffffffffffffffffffffffffffffffffffff1673ffffffffffffffffffffffffffffffffffffffff16815260200190815260200160002060006101000a81548160ff0219169083151502179055506000818154811015156102e057fe5b90600052602060002090600302016002016000815480929190600101919050555050565b60035481565b60025481565b60008181548110151561031f57fe5b9060005260206000209060030201600091509050806000015490806001018054600181600116156101000203166002900480601f0160208091040260200160405190810160405280929190818152602001828054600181600116156101000203166002900480156103d15780601f106103a6576101008083540402835291602001916103d1565b820191906000526020600020905b8154815290600101906020018083116103b457829003601f168201915b5050505050908060020154905083565b60016020528060005260406000206000915054906101000a900460ff16815600a165627a7a72305820d21184ace59356e6549875abfa96cfb24d00d381e1ac51e339bbfe872bbc998a0029",
  "source": "pragma solidity ^0.4.2;\r\n\r\ncontract Election {\r\n    \r\n\r\n     function Election () public {     \r\n        addCandidate(\"candidate 1\");\r\n        addCandidate(\"candidate 2\");\r\n        //auctionEnd = now + (durationMins + 1 minutes);\r\n\r\n    }\r\n\r\n    Candidate[] public candidates;\r\n    mapping(address => bool) public voters;\r\n\r\n    uint public candidatesCount;\r\n    uint public auctionEnd;\r\n    //uint durationMins= 60;    \r\n   \r\n    \r\n    struct Candidate {\r\n            uint id;\r\n            string name;\r\n            uint voteCount;\r\n    }\r\n    \r\n    struct Voter {\r\n        bool authorized;\r\n        bool voted;\r\n        uint vote;\r\n    }\r\n\r\n    \r\n    function addCandidate (string _name) private {\r\n        candidatesCount++;\r\n        candidates.push(Candidate(candidatesCount, _name, 0));\r\n    }\r\n    \r\n\r\n    function vote (uint _candidateId) public {\r\n        require(!voters[msg.sender]); //require that the voter has not voted\r\n        //require (!voters[msg.sender]).authorized; //require that the voter has not been authorized\r\n\r\n        require(_candidateId > 0 && _candidateId <= candidatesCount);\r\n\r\n        voters[msg.sender] = true;\r\n\r\n        candidates[_candidateId].voteCount++;\r\n\r\n\r\n\r\n\r\n    }\r\n}",
  "sourcePath": "C:\\Users\\fergie\\Election\\contracts\\Election.sol",
  "compiler": {
    "name": "solc",
    "version": "0.4.24+commit.e67f0147.Emscripten.clang"
  },
  "schemaVersion": "2.0.1",
  "updatedAt": "2018-12-18T06:51:09.475Z"
}